S01300004D5050545F56302E392E372E737265631F
S11300000C9464010C9481010C9481010C94810181
S11300100C9481010C9481010C9481010C94810154
S11300200C9481010C9481010C9481010C94FE04C4
S11300300C9481010C9481010C9481010C94810134
S11300400C9481010C9481010C9481010C94810124
S11300500C9481010C9481010C9481010C94810114
S11300600C9410020C9481010C9481010C94810174
S11300700C9481010C9481010C948101626174746B
S11300806572792073656C65637465642E003656F9
S1130090204C6561642D4163696400313256204C03
S11300A06561642D41636964003253204C692D49B4
S11300B06F6E20382E3456003353204C692D496F0F
S11300C06E2031322E3656004F4646004F4E2000E9
S11300D05343414E2F004155544F2F004F46462F56
S11300E0004F4E2F002F00000000000000005F00B2
S11300F0000007000700147F147F14242A7F2A12AB
S11301002313086462364955225000050300000099
S11301101C2241000041221C00082A1C2A0808084D
S11301203E08080050300000080808080800303075
S1130130000020100804023E5149453E00427F4021
S11301400042615149462141454B311814127F1038
S113015027454545393C4A4949300171090503366B
S113016049494936064949291E00363600000056D9
S113017036000000081422411414141414412214EB
S113018008000201510906324979413E7E111111DC
S11301907E7F494949363E414141227F4141221CEB
S11301A07F494949417F090901013E414151327F5B
S11301B00808087F00417F41002040413F017F083B
S11301C01422417F404040407F0204027F7F0408A4
S11301D0107F3E4141413E7F090909063E415121BC
S11301E05E7F09192946464949493101017F0101C8
S11301F03F4040403F1F2040201F7F2018207F6346
S1130200140814630304780403615149454300004E
S11302107F4141020408102041417F000004020193
S11302200204404040404000010204002054545461
S1130230787F484444383844444420384444487F10
S11302403854545418087E090102081454543C7F4D
S11302500804047800447D40004080847D00007FD1
S113026010284400417F40007C041804787C080472
S113027004783844444438FC14141408081414183A
S11302807C7C080404084854545420043F4440200F
S11302903C4040207C1C2040201C3C4030403C44DE
S11302A0281028440C5050503C4464544C440008DA
S11302B036410000007F0000004136080008082A8B
S11302C01C08081C2A08080011241FBECFEFD0E127
S11302D0DEBFCDBF11E0A0E0B1E0E0EEF1E102C08D
S11302E005900D92AC30B107D9F721E0ACE0B1E054
S11302F001C01D92AE33B207E1F70E94BB040C9417
S1130300EE080C94000080EF80937E008FEE8093C3
S11303107A0080E880BF84E080937C0081E0809351
S1130320340108950F931F93CF93DF93EC018B0156
S1130330E4E2F1E0208131814CE1429FC001439F1E
S1130340900D112499838883828193819C01220FCB
S1130350331F220F331F820F931F8D979B838A8332
S11303608481958182959295907F9827807F9827A4
S11303709F838E8386819781919581959109880FBA
S1130380991F880F991F8C5F9B4F998788872881B5
S11303903981AA81BB810E94500820E137E240E004
S11303A050E00E9431083D832C832E813F81A88533
S11303B0B9850E94500828EE33E040E050E00E94E6
S11303C031083B872A872E813F81F8018081918102
S11303D0821793071CF481E08C8709C02E813F812A
S11303E0F80182819381281739070CF41C862E8129
S11303F03F81F80184819581281739071CF481E035
S11304008D8709C02E813F81F801868197818217EB
S113041093070CF41D86DF91CF911F910F910895DE
S11304201F920F920FB60F9211242F933F938F9325
S11304309F93EF93FF9380913401882319F01092D6
S11304403401B5C080917C008530A9F118F4843062
S113045041F0ADC0863009F458C0873009F47FC03C
S1130460A6C02091780030917900E4E2F1E0808523
S11304709185820F931F9187808781898F5F818BFC
S11304808189883008F493C08085918596958795F5
S11304909695879596958795918780878085918590
S11304A09183808311861086118A85E080937C0075
S11304B081E0808B7CC02091780030917900E4E267
S11304C0F1E082859385820F931F938782878189C8
S11304D08F5F818B8189883008F469C08285938518
S11304E09695879596958795969587959387828710
S11304F0828593859383828313861286118A86E08C
S113050080937C0081E0808B52C0209178003091F0
S11305107900E4E2F1E084859585820F931F958745
S1130520848781898F5F818B8189883008F43FC0FB
S113053084859585969587959695879596958795BF
S11305409587848784859585958384831586148609
S1130550118A87E080937C0081E0808B28C0209101
S1130560780030917900E4E2F1E086859785820F86
S1130570931F9787868781898F5F818B81898830D4
S1130580B0F08685978596958795969587959695E7
S11305908795978786878685978597838683178629
S11305A01686118A84E080937C0081E0808BFF9121
S11305B0EF919F918F913F912F910F900FBE0F90CC
S11305C01F9018958AB18C608AB981B1897F81B9ED
S11305D082B1866082B9089580B1809586708695CF
S11305E00895CF93DF93EC010E94EC0290910C01EB
S11305F0982B90930C01811103C0988310920C01E5
S1130600DF91CF910895AF92BF92DF92EF92FF9264
S11306100F931F93CF93DF93CDB7DEB72A970FB60F
S1130620F894DEBF0FBECDBF8C015B01D42EE22E49
S113063080E00E949E0519861A86F80180819181C6
S11306404AE0BE016F5F7F4F0E949008AE014F5F8A
S11306505F4FBE01665F7F4FCE0109960E94370649
S11306606894FF24F6F8F986F801848195814AE0BC
S1130670BE016F5F7F4F0E949008AE014F5F5F4FD6
S1130680BE01665F7F4FCE0109960E94370645EE94
S113069050E0BE01665F7F4FCE0109960E9452066C
S11306A04AE0BE016F5F7F4FC5010E949008AE0112
S11306B04F5F5F4FBE01665F7F4FCE0109960E9478
S11306C03706198681E08A87F801828193814AE09E
S11306D0BE016F5F7F4F0E949008AE014F5F5F4F76
S11306E0BE01665F7F4FCE0109960E943706F986E8
S11306F080913D01813051F441EE50E0BE01665FCE
S11307007F4FCE0109960E94520629C080913D0177
S113071081110AC04CED50E0BE01665F7F4FCE01EF
S113072009960E9452061BC080913D01823051F40B
S113073046ED50E0BE01665F7F4FCE0109960E94F0
S113074052060DC080913D01833049F440ED50E0E4
S1130750BE01665F7F4FCE0109960E945206DD20DE
S113076051F04CEC50E0BE01665F7F4FCE0109961C
S11307700E94520609C048EC50E0BE01665F7F4FFC
S1130780CE0109960E945206198682E08A87F801F2
S1130790868197814AE0BE016F5F7F4F0E94900877
S11307A0AE014F5F5F4FBE01665F7F4FCE0109967A
S11307B00E9437066894FF24F6F8F986F8018285CA
S11307C093854AE0BE016F5F7F4F0E949008AE019F
S11307D04F5F5F4FBE01665F7F4FCE0109960E9457
S11307E03706198683E08A87F801808591854AE077
S11307F0BE016F5F7F4F0E949008AE014F5F5F4F55
S1130800BE01665F7F4FCE0109960E943706F986C6
S11308104AE0BE016F5F7F4F8E2D90E00E949008EA
S1130820AE014F5F5F4FBE01665F7F4FCE010996F9
S11308300E9437062A960FB6F894DEBF0FBECDBFCE
S1130840DF91CF911F910F91FF90EF90DF90BF90B8
S1130850AF900895CF93DF9300D0CDB7DEB7198260
S11308601A82833051F448EB50E0BE016E5F7F4F33
S1130870CE0101960E94520621C0823051F449EA09
S113088050E0BE016E5F7F4FCE0101960E9452067A
S113089015C0813051F44BE950E0BE016E5F7F4FCB
S11308A0CE0101960E94520609C04EE850E0BE01F6
S11308B06E5F7F4FCE0101960E945206198281E03D
S11308C08A834CE750E0BE016E5F7F4FCE010196F4
S11308D00E9452062FEF8AE197EB2150804090400E
S11308E0E1F700C000000F900F90DF91CF910895C1
S11308F0579A08950E94B90580E00E949E050E94BF
S113090078041092B3000895FB01DC0114964D9114
S11309105C911597208131812417350744F414968E
S11309208D919C9115979183808381E082830895B2
S1130930CF93DF93FC012281222341F0EC016081FB
S1130940718184E090E00E94CB081A82DF91CF91FC
S11309500895CF93DF93EC0184E090E00E94C508F2
S11309609983888388819981019611F41982188268
S1130970DF91CF9108950E9471060E947A040E942B
S1130980E2020E9483018AE391E00E94A904789420
S11309908FE493EC0197F1F700C000000E94EC0291
S11309A0C82F6EE071E00E94E6078C2F0E942A0493
S11309B08AE391E00E9498048DE091E00E94F102A4
S11309C040E051E06DE371E08DE091E00E94A40706
S11309D000913D01C8B50E94A50660913A0170914D
S11309E03B012C2F482F86E191E00E9403038FE402
S11309F093EC0197F1F700C00000DACF78941F92CE
S1130A000F920FB60F9211242F933F934F935F933E
S1130A106F937F938F939F93AF93BF93EF93FF93C2
S1130A206EE071E086E191E00E9492016AE371E078
S1130A3086E191E00E94840440E051E066E171E0C7
S1130A408DE391E00E941C07FF91EF91BF91AF915C
S1130A509F918F917F916F915F914F913F912F91D2
S1130A600F900FBE0F901F9018952A9817B8299AC7
S1130A70611102C05D9801C05E98289A2A9896B1C7
S1130A8028982BB120662BB9982391F729988FEFDA
S1130A9087B90895CF93DF93D82FC62F80E80E949B
S1130AA035052A98D8B92998C11102C05D9801C0AA
S1130AB05E98289A2A9828988BB180668BB9DF9122
S1130AC0CF910895CF93DF93C82FD62F8D3370F431
S1130AD060E080E80E94350560E08C2F0E944A05A2
S1130AE060E08D2F886B0E944A050EC061E080E8AB
S1130AF00E94350561E083EC8C0F0E944A0561E099
S1130B008D2F886B0E944A05DF91CF910895CF9372
S1130B10DF93C82FD42F0E9462052A9A2998D8B946
S1130B20CD3310F45D9801C05E98289A2A9A2898CB
S1130B308BB180668BB9DF91CF9108951F93CF93CA
S1130B40DF9311E0811101C010E01195D0E00BC0DA
S1130B50412F6D2F8C2F0E948705CF5FCA37C1F7B5
S1130B60DF5FD43011F0C0E0F3CFDF91CF911F915C
S1130B700895CF93549A8FEF87B98AB180668AB962
S1130B80089A84B1876084B98FE493EC0197F1F7F4
S1130B9000C0000010988FE493EC0197F1F700C0B7
S1130BA00000109AC0E06C2F82EE0E944A056C2F60
S1130BB080E10E9435056C2F80EA0E944A056C2F63
S1130BC084EA0E944A056C2F8EEE0E944A056C2F1F
S1130BD089EA0E944A056C2F8FEA0E944A056C2F0D
S1130BE080EC0E944A05CF5FC230E9F680E00E94A3
S1130BF09E05CF910895CF92DF92EF92FF920F93CB
S1130C001F93CF93DF938C016B01405250E07A0124
S1130C10EE0CFF1CEE0CFF1C4E0D5F1DEA01C951CA
S1130C20DF4FCA0184519F4F7C01FE014491F601BC
S1130C306081F80180810E948705F80180818F5FBF
S1130C4080832196CE15DF0581F740E0F6016081AF
S1130C500E948705F80180818F5F8083DF91CF91A7
S1130C601F910F91FF90EF90DF90CF900895EF9236
S1130C70FF920F931F93CF93DF93EA01488144239C
S1130C8051F07B018C012196B701C8010E94FB053C
S1130C9049914111F9CFDF91CF911F910F91FF90AD
S1130CA0EF900895EF92FF920F931F93CF93DF93EA
S1130CB07C018B01EA01FA018491882359F0FE0139
S1130CC021964491B801C7010E94FB05FE0184915D
S1130CD08111F5CFDF91CF911F910F91FF90EF908C
S1130CE00895E0E8F0E0808182628083E1E8F0E04A
S1130CF080818961808380E197E29093870080936B
S1130D00860088E893E190938B0080938A00E0EB5F
S1130D10F0E08081836C8083E1EBF0E08081876088
S1130D208083E0E7F0E080818160808384B5836222
S1130D3084BD85B5896085BD84E687BD82E388BDB1
S1130D400895249A08952498089584B18295817011
S1130D500895FC0144815581209136013091370179
S1130D60421753072CF420910A01219520930A017C
S1130D70FC0184819581909337018093360188B575
S1130D80811104C081E080930A0106C088B58336CE
S1130D9018F08FEF80930A0198B580910A01890FAA
S1130DA088BD0895FC0144815581FB01258136816C
S1130DB02417350740F4FC0184819581FB01968357
S1130DC0858388B5848388B5833628F488B58F5F96
S1130DD088BD81E0089580E00895FC0190910901A7
S1130DE0915090930901911105C081E0808384E0C2
S1130DF0809309010895FC01828193810197938373
S1130E00828382819381892B31F481E0818380E123
S1130E1099E5938382830895FC0183E0DB018C933D
S1130E20118214821682158218BC85E0878380E1C2
S1130E3099E5938382830895EF92FF920F931F9312
S1130E40CF93DF93EC018B017A018881813019F013
S1130E508881833021F481E0809339013BC088810B
S1130E60811103C01092390135C08881823091F517
S1130E70FA018085882321F08085815080870BC00A
S1130E800E94A506882339F0F80184819581499749
S1130E9014F4109239010E94A506811109C0F801C9
S1130EA080819181893092451CF081E080933901E1
S1130EB0C7010E94FB060E94A506882359F0F7018A
S1130EC08181882339F08081882321F0BE01C70104
S1130ED00E940C0788E391E00E94ED06F8018485E6
S1130EE0811129C080913901882329F10E94A1062A
S1130EF080913801882309F1109238018881833068
S1130F00B1F4F7018781882321F087818150878399
S1130F1014C0B701C8010E94D20681110EC082E03C
S1130F208883F701848188BD85E0808706C0C80175
S1130F300E94A90602C00E94A306DF91CF911F91CF
S1130F400F91FF90EF900895CF93DF93FC012081E0
S1130F50223041F1233019F02130A9F52CC0DA01F7
S1130F60FB01EC018081811104C0CA010E940C07BD
S1130F7017C08081833051F482E0808314968C9171
S1130F80149788BD85E018968C930AC080818230BE
S1130F9019F481E0808304C08081813009F41082D7
S1130FA0188211C028B5233618F428B52F5F28BD40
S1130FB0FC01108208C028B5222319F028B521505D
S1130FC028BDFC011082DF91CF910895FB0183308D
S1130FD089F488E391E39183808382EA90E39383A5
S1130FE0828388E293E2958384838AEE94E29783F2
S1130FF086830895823089F480ED90E29183808322
S11310008CE690E29383828380E797E195838483DF
S11310108CE998E1978386830895813089F480E48C
S113102098E39183808380EB96E39383828380E3C8
S11310309AE29583848388EF9AE29783868308955E
S113104080E29CE19183808388E59BE193838283A2
S113105088E195E1958384838CE795E19783868382
S11310600895052E97FB1EF400940E94480857FD2E
S113107007D00E946E0807FC03D04EF40C94480875
S113108050954095309521953F4F4F4F5F4F0895B0
S113109090958095709561957F4F8F4F9F4F0895E0
S11310A00E945808332312F48A1B9B0B0C94690882
S11310B0A29FB001B39FC001A39F700D811D112495
S11310C0911DB29F700D811D1124911D08950E94E0
S11310D05808B7FF0895821B930B0895A1E21A2EB6
S11310E0AA1BBB1BFD010DC0AA1FBB1FEE1FFF1FC8
S11310F0A217B307E407F50720F0A21BB30BE40B18
S1131100F50B661F771F881F991F1A9469F760955E
S11311107095809590959B01AC01BD01CF01089518
S1131120BB274A3031F4992322F4BDE2909581958E
S11311309F4F0C949C08BB27FB015527AA27880FB7
S1131140991FAA1FA41710F0A41B83955051B9F737
S1131150A05DAA3308F0A95DA193009779F7B111B6
S1131160B1931192CB010C94B508DC01FC01672FFB
S113117071917723E1F7329704C07C916D9370836A
S11311806291AE17BF07C8F30895A8E1B0E042E04A
S113119050E00C94D2080E94E008272F0C94E10838
S11311A0DC01CB01FC01F999FECF06C0F2BDE1BD23
S11311B0F89A319600B40D9241505040B8F7089512
S11311C0262FF999FECF1FBA92BD81BD20BD0FB65F
S11311D0F894FA9AF99A0FBE01960895F894FFCFFD
S10F11E001001059000000000004010090
S9030000FC
