S00F00004D5050545F56312E73726563EE
S11300000C9464010C9481010C9481010C94810181
S11300100C9481010C9481010C9481010C94810154
S11300200C9481010C9481010C9481010C94490578
S11300300C9481010C9481010C9481010C94810134
S11300400C9481010C9481010C9481010C94810124
S11300500C9481010C9481010C9481010C94810114
S11300600C9445020C9481010C9481010C9481013F
S11300700C9481010C9481010C948101626174746B
S11300806572792073656C65637465642E003656F9
S1130090204C6561642D4163696400313256204C03
S11300A06561642D41636964003253204C692D49B4
S11300B06F6E20382E3456003353204C692D496F0F
S11300C06E2031322E3656004F4646004F4E2000E9
S11300D05343414E2F004155544F2F004F46462F56
S11300E0004F4E2F002F00000000000000005F00B2
S11300F0000007000700147F147F14242A7F2A12AB
S11301002313086462364955225000050300000099
S11301101C2241000041221C00082A1C2A0808084D
S11301203E08080050300000080808080800303075
S1130130000020100804023E5149453E00427F4021
S11301400042615149462141454B311814127F1038
S113015027454545393C4A4949300171090503366B
S113016049494936064949291E00363600000056D9
S113017036000000081422411414141414412214EB
S113018008000201510906324979413E7E111111DC
S11301907E7F494949363E414141227F4141221CEB
S11301A07F494949417F090901013E414151327F5B
S11301B00808087F00417F41002040413F017F083B
S11301C01422417F404040407F0204027F7F0408A4
S11301D0107F3E4141413E7F090909063E415121BC
S11301E05E7F09192946464949493101017F0101C8
S11301F03F4040403F1F2040201F7F2018207F6346
S1130200140814630304780403615149454300004E
S11302107F4141020408102041417F000004020193
S11302200204404040404000010204002054545461
S1130230787F484444383844444420384444487F10
S11302403854545418087E090102081454543C7F4D
S11302500804047800447D40004080847D00007FD1
S113026010284400417F40007C041804787C080472
S113027004783844444438FC14141408081414183A
S11302807C7C080404084854545420043F4440200F
S11302903C4040207C1C2040201C3C4030403C44DE
S11302A0281028440C5050503C4464544C440008DA
S11302B036410000007F0000004136080008082A8B
S11302C01C08081C2A08080011241FBECFEFD0E127
S11302D0DEBFCDBF11E0A0E0B1E0E6EFF2E102C085
S11302E005900D92AC30B107D9F721E0ACE0B1E054
S11302F001C01D92A234B207E1F70E9406050C94D6
S113030079090C94000080EF80937E008FEE809337
S11303107A0080E880BF84E080937C0081E0809351
S113032038010895CF92DF92EF92FF920F931F93BB
S1130330CF93DF93EC018B01E8E2F1E0208131817E
S11303404CE1429FC001439F900D112499838883FF
S11303508281938109979B838A8384819581829585
S11303609295907F9827807F98279B878A872681FC
S113037037814BEF4203C001439F900D11248D55EB
S1130380984F9D878C8728813981AA81BB810E94DF
S1130390D0080F2EF8EECF2EF3E0DF2EE12CF12C57
S11303A0F02DA70196010E94B1083D832C832A8574
S11303B03B85AC85BD850E94D008A70196010E94AB
S11303C0B1083F872E872A853B85F801808191817A
S11303D0821793071CF481E0888B09C02A853B852A
S11303E0F80182819381281739070CF4188A2A8529
S11303F03B85F80184819581281739071CF481E035
S1130400898B09C02A853B85F801868197818217EB
S113041093070CF4198ADF91CF911F910F91FF90EC
S1130420EF90DF90CF900895CF92DF92EF92FF92FA
S1130430FC01C680D780E084F184248135818681E3
S11304409781A085B185CD01BB2797FDB095AB2FD2
S1130450A901330F660B770B9A01AB01281B390BEB
S11304604A0B5B0BA7E2B5E10E94EE08DC01CB016D
S11304708C0D9D1DAE1DBF1D86839783A087B187FC
S1130480FF90EF90DF90CF9008951F920F920FB6D8
S11304900F9211242F933F938F939F93EF93FF9386
S11304A080913801882319F010923801B5C08091E9
S11304B07C008530A9F118F4843041F0ADC0863059
S11304C009F458C0873009F47FC0A6C02091780091
S11304D030917900E8E2F1E080859185820F931FE5
S11304E09187808781898F5F818B8189883008F427
S11304F093C08085918596958795969587959695D1
S113050087959187808780859185918380831186E3
S11305101086118A85E080937C0081E0808B7CC00A
S11305202091780030917900E8E2F1E082859385AA
S1130530820F931F9387828781898F5F818B818943
S1130540883008F469C08285938596958795969539
S113055087959695879593878287828593859383DC
S1130560828313861286118A86E080937C0081E060
S1130570808B52C02091780030917900E8E2F1E05C
S113058084859585820F931F9587848781898F5FE2
S1130590818B8189883008F43FC084859585969540
S11305A0879596958795969587959587848784856D
S11305B095859583848315861486118A87E08093B4
S11305C07C0081E0808B28C02091780030917900F4
S11305D0E8E2F1E086859785820F931F97878687E7
S11305E081898F5F818B81898830B0F0868597857A
S11305F096958795969587959695879597878687F7
S1130600868597859783868317861686118A84E064
S113061080937C0081E0808BFF91EF919F918F917B
S11306203F912F910F900FBE0F901F9018958AB194
S11306308C608AB981B1897F81B982B1866082B9BF
S1130640089580B18095867086950895CF93DF9341
S1130650EC010E94210390910C01982B90930C01C2
S1130660811103C0988310920C01DF91CF910895FA
S1130670AF92BF92DF92EF92FF920F931F93CF93AB
S1130680DF93CDB7DEB72A970FB6F894DEBF0FBE5F
S1130690CDBF8C015B01D42EE22E80E00E941906AE
S11306A019861A86F801808191814AE0BE016F5F44
S11306B07F4F0E941B09AE014F5F5F4FBE01665F13
S11306C07F4FCE0109960E94B8066894FF24F6F87D
S11306D0F986F80186819781A085B1854AE0BE013B
S11306E06F5F7F4FCD010E941B09AE014F5F5F4FCB
S11306F0BE01665F7F4FCE0109960E94B80645EEA3
S113070050E0BE01665F7F4FCE0109960E94D1067C
S11307104AE0BE016F5F7F4FC5010E941B09AE0115
S11307204F5F5F4FBE01665F7F4FCE0109960E9407
S1130730B806198681E08A87F801828193814AE0AC
S1130740BE016F5F7F4F0E941B09AE014F5F5F4F79
S1130750BE01665F7F4FCE0109960E94B806F986F6
S113076080914101813051F441EE50E0BE01665F59
S11307707F4FCE0109960E94D10629C08091410184
S113078081110AC04CED50E0BE01665F7F4FCE017F
S113079009960E94D1061BC080914101823051F418
S11307A046ED50E0BE01665F7F4FCE0109960E9480
S11307B0D1060DC080914101833049F440ED50E0F1
S11307C0BE01665F7F4FCE0109960E94D106DD20EF
S11307D051F04CEC50E0BE01665F7F4FCE010996AC
S11307E00E94D10609C048EC50E0BE01665F7F4F0D
S11307F0CE0109960E94D106198682E08A87F80103
S1130800828593854AE0BE016F5F7F4F0E941B097A
S1130810AE014F5F5F4FBE01665F7F4FCE01099609
S11308200E94B8066894FF24F6F8F986F8018685D4
S113083097854AE0BE016F5F7F4F0E941B09AE019E
S11308404F5F5F4FBE01665F7F4FCE0109960E94E6
S1130850B806198683E08A87F801848595854AE07D
S1130860BE016F5F7F4F0E941B09AE014F5F5F4F58
S1130870BE01665F7F4FCE0109960E94B806F986D5
S11308804AE0BE016F5F7F4F8E2D90E00E941B09EE
S1130890AE014F5F5F4FBE01665F7F4FCE01099689
S11308A00E94B8062A960FB6F894DEBF0FBECDBFDD
S11308B0DF91CF911F910F91FF90EF90DF90BF9048
S11308C0AF900895CF93DF9300D0CDB7DEB71982F0
S11308D01A82833051F448EB50E0BE016E5F7F4FC3
S11308E0CE0101960E94D10621C0823051F449EA1A
S11308F050E0BE016E5F7F4FCE0101960E94D1068B
S113090015C0813051F44BE950E0BE016E5F7F4F5A
S1130910CE0101960E94D10609C04EE850E0BE0106
S11309206E5F7F4FCE0101960E94D106198281E04D
S11309308A834CE750E0BE016E5F7F4FCE01019683
S11309400E94D1062FEF8AE197EB2150804090401E
S1130950E1F700C000000F900F90DF91CF91089550
S11309608AB180688AB908958093B30008950E947B
S1130970340680E00E9419060E94B00480E00E94C0
S1130980B4040895CF93DF93FB01DC0116964D91D7
S11309905D916D917C9119972081318126173707DC
S11309A07CF416968D919D910D90BC91A02DCD0156
S11309B0BB2797FDB095AB2F9183808381E0828321
S11309C0DF91CF910895CF93DF93FC0122812223FD
S11309D041F0EC016081718184E090E00E9456094D
S11309E01A82DF91CF910895CF93DF93EC0184E0D5
S11309F090E00E94500999838883888199810196A7
S1130A0011F419821882DF91CF9108950E94EE06A5
S1130A100E94B7040E9417030E9483018EE391E0B1
S1130A200E94F40478948FE493EC0197F1F700C0EA
S1130A3000000E942103C82F6EE071E00E94660846
S1130A408C2F0E9462048EE391E00E94E3048DE007
S1130A5091E00E94260340E051E061E471E08DE002
S1130A6091E00E942B0800914101C8B50E9426071D
S1130A7060913E0170913F012C2F482F86E191E057
S1130A800E9438038FE493EC0197F1F700C0000053
S1130A90DACF78941F920F920FB60F9211242F93EE
S1130AA03F934F935F936F937F938F939F93AF93F2
S1130AB0BF93EF93FF936EE071E086E191E00E94B3
S1130AC0920186E191E00E9414026EE371E086E1F6
S1130AD091E00E94C20440E051E066E171E081E4EB
S1130AE091E00E94A607FF91EF91BF91AF919F9172
S1130AF08F917F916F915F914F913F912F910F90C3
S1130B000FBE0F901F90189595B19B7F95B917B89C
S1130B1095B1926095B9611104C09BB19F7D9BB959
S1130B2003C09BB19F7B9BB995B1916095B995B179
S1130B309B7F95B996B125B12E7F25B92BB120663F
S1130B402BB9982341F785B18D7F85B98FEF87B98C
S1130B500895CF93DF93D82FC62F80E80E94840591
S1130B6085B18B7F85B9D8B985B18D7F85B9C11120
S1130B7004C08BB18F7D8BB903C08BB18F7B8BB9D4
S1130B8085B1816085B985B18B7F85B985B18E7F4B
S1130B9085B98BB180668BB9DF91CF910895CF93DE
S1130BA0DF93C82FD62F8D3370F460E080E80E9465
S1130BB0840560E08C2F0E94A90560E08D2F886B6E
S1130BC00E94A9050EC061E080E80E94840561E0EE
S1130BD083EC8C0F0E94A90561E08D2F886B0E9425
S1130BE0A905DF91CF910895CF93DF93C82FD42F18
S1130BF00E94CF0585B1846085B985B18D7F85B9A3
S1130C00D8B9CD3320F48BB18F7D8BB903C08BB1B0
S1130C108F7B8BB985B1816085B985B1846085B9D5
S1130C2085B18E7F85B98BB180668BB9DF91CF9109
S1130C3008951F93CF93DF93882311F01FEF01C012
S1130C4010E0D0E00BC0412F6D2F8C2F0E94F405D3
S1130C50CF5F01C0C0E0CA37B0F3DF5FD430D0F358
S1130C60DF91CF911F910895CF938AB180618AB9A2
S1130C708FEF87B98AB180668AB981B1816081B901
S1130C8084B1876084B98FE493EC0197F1F700C0D5
S1130C90000082B18E7F82B98FE493EC0197F1F763
S1130CA000C0000082B1816082B9C0E021C06C2F15
S1130CB082EE0E94A9056C2F80E10E9484056C2FAE
S1130CC080EA0E94A9056C2F84EA0E94A9056C2F72
S1130CD08EEE0E94A9056C2F89EA0E94A9056C2F4B
S1130CE08FEA0E94A9056C2F80EC0E94A905CF5FB2
S1130CF0C230E8F280E00E941906CF910895EF9285
S1130D00FF920F931F93CF93DF93EC018B010F2E70
S1130D10F0EEEF2EF02DE40EF12C17C08E2D90E0A6
S1130D20FC01EE0FFF1FEE0FFF1FE80FF91FEF0D81
S1130D30F11DE951FF4F4491F801608188810E94BF
S1130D40F40588818F5F8883F394F4E0FF1530F70E
S1130D5040E0F801608188810E94F40588818F5FFA
S1130D608883DF91CF911F910F91FF90EF900895A9
S1130D70EF92FF920F931F93CF93DF937C018B012C
S1130D80EA0105C02196B801C7010E947F06488187
S1130D904111F8CFDF91CF911F910F91FF90EF9008
S1130DA00895EF92FF920F931F93CF93DF937C01EB
S1130DB08B01EA0107C02196FA014491B801C701E9
S1130DC00E947F06AE01FE0184918111F4CFDF9170
S1130DD0CF911F910F91FF90EF900895E0E8F0E01C
S1130DE0808182628083E1E8F0E080818961808390
S1130DF080E197E2909387008093860088E893E1EE
S1130E0090938B0080938A00E0EBF0E08081836C08
S1130E108083E1EBF0E0808187608083E0E7F0E0AD
S1130E2080818160808384B5836284BD85B5896057
S1130E3085BD84E687BD82E388BD089584B1806161
S1130E4084B9089584B18F7E84B9089581E0249B88
S1130E5080E00895FC014481558120913A0130914C
S1130E603B01421753072CF420910A01219520934A
S1130E700A01FC018481958190933B0180933A019E
S1130E8088B5811104C081E080930A0106C088B549
S1130E90833618F08FEF80930A0198B580910A0188
S1130EA0890F88BD0895FC0144815581FB0125818A
S1130EB036812417350740F4FC0184819581FB01B8
S1130EC09683858388B5848388B5833628F488B56A
S1130ED08F5F88BD81E0089580E00895FC019091C2
S1130EE00901915090930901911105C081E080831B
S1130EF084E0809309010895FC0182819381019724
S1130F009383828382819381892B31F481E081836D
S1130F1080E292EB938382830895FC0183E0DB01FA
S1130F208C93118214821682158218BC8AE08783FE
S1130F3080E292EB93838283089522E0FB01208375
S1130F40FC01248128BD2AE020870895EF92FF92B6
S1130F500F931F93CF93DF93EC018B017A01888168
S1130F60813019F08881833021F481E080933D0140
S1130F703BC08881811103C010923D0135C0888136
S1130F80823091F5FA018085882321F08085815093
S1130F9080870BC00E942607882339F0F8018481DA
S1130FA09581499714F410923D010E9426078111FE
S1130FB009C0F80180819181893197441CF081E056
S1130FC080933D01C7010E947C070E942607882365
S1130FD059F0F7018181882339F08081882321F039
S1130FE0BE01C7010E948D078CE391E00E946E0749
S1130FF0F8018089811126C080913D01882311F177
S11310000E941E0780913C018823F1F010923C015C
S11310108881833099F4F7018781882321F08781BF
S11310208150878311C0B701C8010E945307811101
S11310300BC0BE01C7010E949D0706C0C8010E94E3
S11310402A0702C00E942207DF91CF911F910F91BE
S1131050FF90EF900895CF93DF93FC01208122301D
S113106009F1233019F0213071F525C0FB01EC01A1
S11310708081811104C0CA010E948D0711C0808142
S1131080833021F4CA010E949D070AC08081823006
S113109019F481E0808304C08081813009F41082D6
S11310A0188211C028B5233618F428B52F5F28BD3F
S11310B0FC01108208C028B5222319F028B521505C
S11310C028BDFC011082DF91CF910895FB0183308C
S11310D089F48CE090E39183808380EE9EE2938395
S11310E0828388E293E2958384838AEE94E29783F1
S11310F086830895823089F480E49FE1918380831C
S11311008CED9EE19383828380E797E195838483CA
S11311108CE998E1978386830895813089F488EE79
S113112095E3918380838CEB94E39383828380E3C0
S11311309AE29583848388EF9AE29783868308955D
S113114084EF9AE19183808380E99AE19383828397
S113115088E195E1958384838CE795E19783868381
S11311600895052E97FB1EF400940E94C80857FDAD
S113117007D00E94F90807FC03D04EF40C94C80869
S113118050954095309521953F4F4F4F5F4F0895AF
S113119090958095709561957F4F8F4F9F4F0895DF
S11311A00E94D808332312F48A1B9B0B0C94E90881
S11311B0A29FB001B39FC001A39F700D811D112494
S11311C0911DB29F700D811D1124911D08950E94DF
S11311D0D808B7FF0895821B930B08950E94D8087E
S11311E0A59F900DB49F900DA49F800D911D112477
S11311F00895A1E21A2EAA1BBB1BFD010DC0AA1F54
S1131200BB1FEE1FFF1FA217B307E407F50720F06B
S1131210A21BB30BE40BF50B661F771F881F991FE6
S11312201A9469F760957095809590959B01AC012F
S1131230BD01CF010895BB274A3031F4992322F42C
S1131240BDE2909581959F4F0C942709BB27FB0124
S11312505527AA27880F991FAA1FA41710F0A41BAB
S113126083955051B9F7A05DAA3308F0A95DA19305
S1131270009779F7B111B1931192CB010C94400905
S1131280DC01FC01672F71917723E1F7329704C0E9
S11312907C916D9370836291AE17BF07C8F3089574
S11312A0A8E1B0E042E050E00C945D090E946B09B3
S11312B0272F0C946C09DC01CB01FC01F999FECFBA
S11312C006C0F2BDE1BDF89A319600B40D924150CA
S11312D05040B8F70895262FF999FECF1FBA92BD52
S11312E081BD20BD0FB6F894FA9AF99A0FBE019603
S10912F00895F894FFCFFD
S10F12F6010020B2000000000004010010
S9030000FC
